:1004E10012044A7B637D017C007F017E0012047748
:0204F10080FE8B
:08051C00756E69636F726E00D9
:0D0503007580FFC2B5D2A1D2B4E5803322CD
:1004F30012050340FBC2B5C2A18F80D2B4C2B4229D
:10041300AB17AA16A915A814AF0FAE0EAD0DAC0CF1
:100423001202E6E47B0AFAF9F81202E6EB2430FF43
:1004330012050340FBD2B5C2A18F80D2B47F027EE6
:0704430000120497C2B4226D
:10044A007F381204F37F0C1204F37F061204F37F41
:10045A00011204F37BFF7A05791C7D057C007E007E
:0D046A001203897F647E00120497020524AE
:050524007F010204F359
:1004B500AD07AC06ED1DAE0470011C4E60077F1D37
:0504C5001204F380EFBA
:0104CA00220F
:1004CB00AD07AC06ED1DAE0470011C4E60077F1826
:0504DB001204F380EFA4
:0104E00022F9
:100477008C208D218B22EF64014E7006E521247FAD
:100487008004E52124BFFF1204F3AF2212043322B4
:0A0389008C208D218B228A23892409
:10039300EF64014E703CF525F526AB22AA23A92470
:1003A30085268285258312022E6064E521247F251C
:1003B30026FF1204F3AB22AA23A9248526828525CE
:1003C3008312022EFF1204330526E52670CC052581
:1003D30080C8E4F525F526AB22AA23A92485268225
:1003E30085258312022E6027E52124BF2526FF12CF
:1003F30004F3AB22AA23A92485268285258312022E
:0F0403002EFF1204330526E52670CC052580C890
:0104120022C7
:080003008C0A8D0BAB07AA0665
:10000B00E4751301F512F511F510751701F516F5D9
:10001B0015F514751B01F51AF519F518EB64014A62
:10002B006003020130E50B247FFF1204F3E47F0A27
:10003B00FEFDFCAB13AA12A911A81012025BA804B7
:10004B00A905AA06AB07AF0FAE0EAD0DAC0C120295
:10005B00E6E4FBFAF9F8C3120378602EAF13AE1285
:10006B00AD11AC10E47B0AF812025B8F138E128D6C
:10007B00118C10E51B2401F51BE4351AF51AE43538
:10008B0019F519E43518F51880A3851B1F851A1E61
:10009B0085191D85181CE47F01FEFDFCAB1FAA1EF4
:1000AB00A91DA81CC3120378500302022DE475137B
:1000BB0001F512F511F510AF1FAE1EAD1DAC1CAB4B
:1000CB0013AA12A911A810C31203785030AF17AEA0
:1000DB0016AD15AC14E47B0AFAF9F812025B8F1714
:1000EB008E168D158C14E5132401F513E43512F5DA
:1000FB0012E43511F511E43510F51080BA12041322
:10010B00E4751701F516F515F514E51F24FFF51F1A
:10011B00E51E34FFF51EE51D34FFF51DE51C34FF10
:10012B00F51C0200A1E50B24BFFF1204F3E47F0AC8
:10013B00FEFDFCAB13AA12A911A81012025BA804B6
:10014B00A905AA06AB07AF0FAE0EAD0DAC0C120294
:10015B00E6E4FBFAF9F8C3120378602EAF13AE1284
:10016B00AD11AC10E47B0AF812025B8F138E128D6B
:10017B00118C10E51B2401F51BE4351AF51AE43537
:10018B0019F519E43518F51880A3851B1F851A1E60
:10019B0085191D85181CE47F01FEFDFCAB1FAA1EF3
:1001AB00A91DA81CC31203784078E4751301F5123E
:1001BB00F511F510AF1FAE1EAD1DAC1CAB13AA1283
:1001CB00A911A810C31203785030AF17AE16AD1596
:1001DB00AC14E47B0AFAF9F812025B8F178E168DBA
:1001EB00158C14E5132401F513E43512F512E435DF
:1001FB0011F511E43510F51080BA120413E47517DC
:10020B0001F516F515F514E51F24FFF51FE51E3452
:10021B00FFF51EE51D34FFF51DE51C34FFF51C0233
:02022B0001A12F
:01022D0022AE
:09049700D3EF9400EE9400401430
:0D04A0000075290B752ABED52AFDD529FA55
:0704AD00EF1F70E61E80E363
:0104B4002225
:03000000020510E6
:0C051000787FE4F6D8FD75812A0204E132
:10022E00BB010CE58229F582E5833AF583E0225085
:10023E0006E92582F8E622BBFE06E92582F8E222CF
:0D024E00E58229F582E5833AF583E49322E9
:10025B00E88FF0A4CC8BF0A42CFCE98EF0A42CFC42
:10026B008AF0EDA42CFCEA8EF0A4CDA8F08BF0A4C0
:10027B002DCC3825F0FDE98FF0A42CCD35F0FCEB1F
:10028B008EF0A4FEA9F0EB8FF0A4CFC5F02ECD39E4
:0F029B00FEE43CFCEAA42DCE35F0FDE43CFC2251
:1002AA0075F008758200EF2FFFEE33FECD33CDCC0B
:1002BA0033CCC58233C5829BED9AEC99E58298408E
:1002CA000CF582EE9BFEED9AFDEC99FC0FD5F0D66B
:1002DA00E4CEFBE4CDFAE4CCF9A88222B800C1B995
:1002EA000059BA002DEC8BF084CFCECDFCE5F0CBD3
:1002FA00F97818EF2FFFEE33FEED33FDEC33FCEB0C
:10030A0033FB10D703994004EB99FB0FD8E5E4F9C6
:10031A00FA227818EF2FFFEE33FEED33FDEC33FCB3
:10032A00C933C910D7059BE99A4007EC9BFCE99AA7
:10033A00F90FD8E0E4C9FAE4CCFB2275F010EF2FEC
:10034A00FFEE33FEED33FDCC33CCC833C810D707EC
:10035A009BEC9AE899400AED9BFDEC9AFCE899F827
:0E036A000FD5F0DAE4CDFBE4CCFAE4C8F922BA
:10037800EB9FF5F0EA9E42F0E99D42F0E89C45F0DB
:010388002252
:00000001FF
