:1004E000438E805389F0758A18758CF9C28DD2A914
:0104F00022E9
:100492001204E0D2AF20B402D28CAE2AAF2BEE33DC
:0C04A20095E0FDFC751C0A12000E80E9BC
:03000B000203CE1F
:1003CE00C0E0C0F0C083C082C0D075D000C000C0F5
:1003DE0001C002C003C004C005C006C007758A185C
:1003EE00758CF9C28CAE28AF297C037DE81202070A
:1003FE00ED4C702620B423052BE52B7002052A75D3
:10040E00280075290020B412AE2AAF2BEE3395E0EA
:10041E00FDFC751C0A12000E80EBD007D006D0052D
:10042E00D004D003D002D001D000D0D0D082D0835F
:05043E00D0F0D0E03217
:1004C8003F065B4F666D7D077F6F777C395E79717C
:0804D8007638373E735C4000EA
:0A04AE00EF1FAC0670011E4C600F3A
:0D04B800007526027527C7D527FDD526FA49
:0304C50080E722AB
:06044300C39520FF7D17A8
:10044900C374069F14601514601714601914601B97
:1004590014601D2405702075801F801775802F80FA
:1004690012758037800D75803B800875803D80034B
:1004790075803ED2A7C2A7ED9004C893F580D2A695
:09048900C2A67F017E000204AE50
:0F000E008F1B8E1A8D198C18EC33500302010FC3
:10001D00E4752001F51FF51EF51D752401F523F579
:10002D0022F521F525EC4D4E4F7003752501AF1BC3
:10003D00AE1AAD19AC18AB20AA1FA91EA81D12022D
:10004D00C8E4FBFAF9F8C3120368601DAF1CE4FCA9
:10005D00FDFEAB20AA1FA91EA81D12023D8F208EEA
:10006D001F8D1E8C1D052580C5E4752001F51FF51E
:10007D001EF51DE47F06FEFDFCAB20AA1FA91EA8E0
:10008D001DD31203684003020206AF25E4FCFDFEFA
:10009D00A81D120368504EC374079520FFC007AF0B
:1000AD001BAE1AAD19AC18AB24AA23A922A8211294
:1000BD0002C8C007AF1CAB07E4FAF9F8D00712026B
:1000CD00C8AF03AD07D007120449AF1CE4FCFDFE19
:1000DD00AB24AA23A922A82112023D8F248E238DA1
:1000ED00228C2180057407120443E5202401F5209C
:1000FD00E4351FF51FE4351EF51EE4351DF51D0213
:02010D00008070
:10010F00E4752001F51FF51EF51D752401F523F586
:10011F0022F521F525AF1BAE1AAD19AC1812035AF3
:10012F00AB20AA1FA91EA81D1202C8E4FBFAF9F8FA
:10013F00C3120368601DAF1CE4FCFDFEAB20AA1FB9
:10014F00A91EA81D12023D8F208E1F8D1E8C1D050E
:10015F002580C2E4752001F51FF51EF51DE47F060D
:10016F00FEFDFCAB20AA1FA91EA81DD312036850C9
:10017F007BAF25E4FCFDFEA81D1203685051C3742C
:10018F00079520FFC007AF1BAE1AAD19AC181203AD
:10019F005AAB24AA23A922A8211202C8C007AF1C58
:1001AF00AB07E4FAF9F8D0071202C8AF03AD07D0D6
:1001BF0007120449AF1CE4FCFDFEAB24AA23A922BD
:1001CF00A82112023D8F248E238D228C218005744D
:1001DF0008120443E5202401F520E4351FF51FE440
:1001EF00351EF51EE4351DF51D02016CC374069511
:0701FF0025FF7D16120449E3
:0102060022D5
:030000000204F106
:0C04F100787FE4F6D8FD75812B020492A0
:10020700C2D5EC30E709B2D5E4C39DFDE49CFCEE12
:1002170030E715B2D5E4C39FFFE49EFE120379C30E
:10022700E49DFDE49CFC800312037930D507C3E409
:060237009FFFE49EFE2281
:10023D00E88FF0A4CC8BF0A42CFCE98EF0A42CFC60
:10024D008AF0EDA42CFCEA8EF0A4CDA8F08BF0A4DE
:10025D002DCC3825F0FDE98FF0A42CCD35F0FCEB3D
:10026D008EF0A4FEA9F0EB8FF0A4CFC5F02ECD3902
:0F027D00FEE43CFCEAA42DCE35F0FDE43CFC226F
:10028C0075F008758200EF2FFFEE33FECD33CDCC29
:10029C0033CCC58233C5829BED9AEC99E5829840AC
:1002AC000CF582EE9BFEED9AFDEC99FC0FD5F0D689
:1002BC00E4CEFBE4CDFAE4CCF9A88222B800C1B9B3
:1002CC000059BA002DEC8BF084CFCECDFCE5F0CBF1
:1002DC00F97818EF2FFFEE33FEED33FDEC33FCEB2A
:1002EC0033FB10D703994004EB99FB0FD8E5E4F9E5
:1002FC00FA227818EF2FFFEE33FEED33FDEC33FCD2
:10030C00C933C910D7059BE99A4007EC9BFCE99AC5
:10031C00F90FD8E0E4C9FAE4CCFB2275F010EF2F0A
:10032C00FFEE33FEED33FDCC33CCC833C810D7070A
:10033C009BEC9AE899400AED9BFDEC9AFCE899F845
:0E034C000FD5F0DAE4CDFBE4CCFAE4C8F922D8
:0E035A00C3E49FFFE49EFEE49DFDE49CFC22B4
:10036800EB9FF5F0EA9E42F0E99D42F0E89C45F0EB
:010378002262
:10037900BC000BBE0029EF8DF084FFADF022E4CC68
:10038900F875F008EF2FFFEE33FEEC33FCEE9DEC31
:10039900984005FCEE9DFE0FD5F0E9E4CEFD22ED77
:1003A900F8F5F0EE8420D21CFEADF075F008EF2FC1
:1003B900FFED33FD4007985006D5F0F222C398FDB2
:0503C9000FD5F0EA224F
:00000001FF
