:10005300438E805389F0438903758A0D758C86C25C
:060063008DD28CD2A9220F
:10001E00D2AFD2ABD28E120053AE08AF09E4FCFDC4
:10002E007B8E7AB1F9F8C31200697006B290F508AA
:10003E00F509E50BB4C7E2E50AB458DDB291E4F573
:05004E000AF50B80D44F
:03000B0002007F71
:10007F00C0E0758A0D0509E50970020508D0E03268
:03001B0002008F51
:10008F00C0E0758C86050BE50B7002050AD0E032D7
:0300000002000EED
:0C000E00787FE4F6D8FD75810B02001E1F
:10006900EB9FF5F0EA9E42F0E99D42F0EC6480C80E
:0600790064809845F022AE
:00000001FF
