:100392005389F0438904758A1E758CFFC28DD28CF5
:1003A200D2A9D2AFAE18AF19EE3395E0FDFC750CB1
:0603B2000A12000E80EEAD
:03000B000203EA03
:1003EA00C0E0758A1E758CFF0519E519700205189B
:0303FA00D0E0321E
:1003D2003F065B4F666D7D077F6F777C395E797173
:0803E2007638373E735C4000E1
:0A03B800EF1FAC0670011E4C600F31
:0D03C200007516027517C7D517FDD516FA80
:0303CF0080E722A2
:06034300C39510FF7D17B9
:10034900C374069F14601514601714601914601B98
:1003590014601D2405702075801F801775802F80FB
:1003690012758037800D75803B800875803D80034C
:1003790075803ED2A7C2A7ED9003D293F580D2A68D
:09038900C2A67F017E000203B848
:0F000E008F0B8E0A8D098C08EC33500302010F03
:10001D00E4751001F50FF50EF50D751401F513F5D9
:10002D0012F511F515EC4D4E4F7003751501AF0B13
:10003D00AE0AAD09AC08AB10AA0FA90EA80D12029D
:10004D0092E4FBFAF9F8C3120332601DAF0CE4FC25
:10005D00FDFEAB10AA0FA90EA80D1202078F108E70
:10006D000F8D0E8C0D051580C5E4751001F50FF57E
:10007D000EF50DE47F06FEFDFCAB10AA0FA90EA830
:10008D000DD31203324003020206AF15E4FCFDFE50
:10009D00A80D120332504EC374079510FFC007AF61
:1000AD000BAE0AAD09AC08AB14AA13A912A8111214
:1000BD000292C007AF0CAB07E4FAF9F8D0071202B1
:1000CD0092AF03AD07D007120349AF0CE4FCFDFE60
:1000DD00AB14AA13A912A8111202078F148E138D37
:1000ED00128C1180057407120343E5102401F510DD
:1000FD00E4350FF50FE4350EF50EE4350DF50D0273
:02010D00008070
:10010F00E4751001F50FF50EF50D751401F513F5E6
:10011F0012F511F515AF0BAE0AAD09AC0812032499
:10012F00AB10AA0FA90EA80D120292E4FBFAF9F870
:10013F00C3120332601DAF0CE4FCFDFEAB10AA0F1F
:10014F00A90EA80D1202078F108E0F8D0E8C0D05A4
:10015F001580C2E4751001F50FF50EF50DE47F065D
:10016F00FEFDFCAB10AA0FA90EA80DD3120332503F
:10017F007BAF15E4FCFDFEA80D1203325051C37482
:10018F00079510FFC007AF0BAE0AAD09AC081203FD
:10019F0024AB14AA13A912A811120292C007AF0C14
:1001AF00AB07E4FAF9F8D007120292AF03AD07D00C
:1001BF0007120349AF0CE4FCFDFEAB14AA13A912FE
:1001CF00A8111202078F148E138D128C11800574D3
:1001DF0008120343E5102401F510E4350FF50FE481
:1001EF00350EF50EE4350DF50D02016CC374069551
:0701FF0015FF7D16120349F4
:0102060022D5
:030000000203FDFB
:0C03FD00787FE4F6D8FD758119020392A8
:10020700E88FF0A4CC8BF0A42CFCE98EF0A42CFC96
:100217008AF0EDA42CFCEA8EF0A4CDA8F08BF0A414
:100227002DCC3825F0FDE98FF0A42CCD35F0FCEB73
:100237008EF0A4FEA9F0EB8FF0A4CFC5F02ECD3938
:0F024700FEE43CFCEAA42DCE35F0FDE43CFC22A5
:1002560075F008758200EF2FFFEE33FECD33CDCC5F
:1002660033CCC58233C5829BED9AEC99E5829840E2
:100276000CF582EE9BFEED9AFDEC99FC0FD5F0D6BF
:10028600E4CEFBE4CDFAE4CCF9A88222B800C1B9E9
:100296000059BA002DEC8BF084CFCECDFCE5F0CB27
:1002A600F97818EF2FFFEE33FEED33FDEC33FCEB60
:1002B60033FB10D703994004EB99FB0FD8E5E4F91B
:1002C600FA227818EF2FFFEE33FEED33FDEC33FC08
:1002D600C933C910D7059BE99A4007EC9BFCE99AFC
:1002E600F90FD8E0E4C9FAE4CCFB2275F010EF2F41
:1002F600FFEE33FEED33FDCC33CCC833C810D70741
:100306009BEC9AE899400AED9BFDEC9AFCE899F87B
:0E0316000FD5F0DAE4CDFBE4CCFAE4C8F9220E
:0E032400C3E49FFFE49EFEE49DFDE49CFC22EA
:10033200EB9FF5F0EA9E42F0E99D42F0E89C45F021
:010342002298
:00000001FF
