:100491007D077F011204487D057F021204487D0912
:1004A1007F03120448900004740AF07F387E007DB7
:0804B100007C0012000380D85A
:1004E1003F065B4F666D7D077F6F777C395E797163
:0804F1007638373E735C4000D1
:0A04B900EF1FAC0670011E4C601D21
:1004C3000090000E7402F0A374C7F090000FE014C4
:0B04D300F070F890000EE014F070F0E4
:0304DE0080D922A0
:10044800C374069F14601514601714601914601B98
:1004580014601D2405702075801F801775802F80FB
:1004680012758037800D75803B800875803D80034C
:1004780075803ED2A7C2A7ED9004E193F580D2A67D
:09048800C2A67F017E000204B946
:1000030090000012040B900000E0FCA3E0FDA3E0CD
:0B001300FEA3E0FFEC33500302017875
:10001E009000051204170000000190000912041749
:10002E0000000001E490000DF0900000E0FCA3E061
:10003E00FDA3E0FEA3E0FFEC4D4E4F700590000DCA
:10004E0004F0900000E0FCA3E0FDA3E0FEA3E0FFBF
:10005E00900005E0F8A3E0F9A3E0FAA3E0FB120399
:10006E005AE4FBFAF9F8C31203FA6026900004E092
:10007E00FFE4FCFDFEA3E0F8A3E0F9A3E0FAA3E0A1
:10008E00FB1202CF90000512040B90000DE004F05D
:10009E0080B090000512041700000001E47F06FEF8
:1000AE00FDFC900005E0F8A3E0F9A3E0FAA3E0FB65
:1000BE00D31203FA40030202CE90000DE0FFE4FCDF
:1000CE00FDFE900005E0F8A3A3A3E01203FA900052
:1000DE00055066A3A3A3E0FFC374079FFFC007905C
:1000EE000000E0FCA3E0FDA3E0FEA3E0FF9000090A
:1000FE00E0F8A3E0F9A3E0FAA3E0FB12035AC0076D
:10010E00900004E0FBE4FAF9F8D00712035AAF03AB
:10011E00AD07D007120448900004E0FFE4FCFDFE9A
:10012E00900009E0F8A3E0F9A3E0FAA3E0FB1202C5
:10013E00CF90000912040B800FA3A3A3E0FFC3749A
:10014E00079FFF7D17120448900005E0FCA3E0FD19
:10015E00A3E0FEA3E02401FFE43EFEE43DFDE43C0B
:0A016E00FC90000512040B0200AA29
:1001780090000512041700000001900009120417EE
:1001880000000001E490000DF0900000E0FCA3E006
:10019800FDA3E0FEA3E0FF1203EC900005E0F8A346
:1001A800E0F9A3E0FAA3E0FB12035AE4FBFAF9F83A
:1001B800C31203FA6026900004E0FFE4FCFDFEA3EE
:1001C800E0F8A3E0F9A3E0FAA3E0FB1202CF900065
:1001D8000512040B90000DE004F080AD90000512AC
:1001E800041700000001E47F06FEFDFC900005E016
:1001F800F8A3E0F9A3E0FAA3E0FBD31203FA400363
:100208000202BF90000DE0FFE4FCFDFE900005E057
:10021800F8A3A3A3E01203FA9000055069A3A3A3CF
:10022800E0FFC374079FFFC007900000E0FCA3E055
:10023800FDA3E0FEA3E0FF1203EC900009E0F8A3A1
:10024800E0F9A3E0FAA3E0FB12035AC00790000408
:10025800E0FBE4FAF9F8D00712035AAF03AD07D070
:1002680007120448900004E0FFE4FCFDFE9000093A
:10027800E0F8A3E0F9A3E0FAA3E0FB1202CF9000B4
:100288000912040B800FA3A3A3E0FFC374089FFF08
:100298007D17120448900005E0FCA3E0FDA3E0FEF2
:1002A800A3E02401FFE43EFEE43DFDE43CFC9000B5
:1002B8000512040B0201EE90000DE0FFC374069FC7
:0602C800FF7D1612044840
:0102CE00220D
:030000000204F9FE
:0C04F900787FE4F6D8FD758107020491BD
:1002CF00E88FF0A4CC8BF0A42CFCE98EF0A42CFCCE
:1002DF008AF0EDA42CFCEA8EF0A4CDA8F08BF0A44C
:1002EF002DCC3825F0FDE98FF0A42CCD35F0FCEBAB
:1002FF008EF0A4FEA9F0EB8FF0A4CFC5F02ECD3970
:0F030F00FEE43CFCEAA42DCE35F0FDE43CFC22DC
:10031E0075F008758200EF2FFFEE33FECD33CDCC96
:10032E0033CCC58233C5829BED9AEC99E582984019
:10033E000CF582EE9BFEED9AFDEC99FC0FD5F0D6F6
:10034E00E4CEFBE4CDFAE4CCF9A88222B800C1B920
:10035E000059BA002DEC8BF084CFCECDFCE5F0CB5E
:10036E00F97818EF2FFFEE33FEED33FDEC33FCEB97
:10037E0033FB10D703994004EB99FB0FD8E5E4F952
:10038E00FA227818EF2FFFEE33FEED33FDEC33FC3F
:10039E00C933C910D7059BE99A4007EC9BFCE99A33
:1003AE00F90FD8E0E4C9FAE4CCFB2275F010EF2F78
:1003BE00FFEE33FEED33FDCC33CCC833C810D70778
:1003CE009BEC9AE899400AED9BFDEC9AFCE899F8B3
:0E03DE000FD5F0DAE4CDFBE4CCFAE4C8F92246
:0E03EC00C3E49FFFE49EFEE49DFDE49CFC2222
:1003FA00EB9FF5F0EA9E42F0E99D42F0E89C45F059
:01040A0022CF
:0C040B00ECF0A3EDF0A3EEF0A3EFF02264
:10041700A8828583F0D083D08212042E12042E1274
:10042700042E12042EE473E493A3C583C5F0C58399
:10043700C8C582C8F0A3C583C5F0C583C8C582C82F
:010447002292
:00000001FF
