:10005800438E805389F0438903758A0D758C86C257
:060068008DD28CD2A9220A
:10000300D2AFD2ABD28E120058308D0DC28D758A0D
:100013000D0509E50970020508308F0DC28F758C37
:1000230086050BE50B7002050AAE08AF09E4FCFD7B
:100033007B8E7AB1F9F8C312006E7006B290F508A0
:10004300F509E50BB4C7C2E50AB458BDB291E4F5AE
:050053000AF50B80B46A
:0300000002008477
:0C008400787FE4F6D8FD75810B020003C4
:10006E00EB9FF5F0EA9E42F0E99D42F0EC6480C809
:06007E0064809845F022A9
:00000001FF
