:1003870020B4157F147E001203B120B4080519E5C7
:10039700197002051830B4FDAE18AF19EE3395E0A9
:0A03A700FDFC750C0A12000380D65D
:1003CB003F065B4F666D7D077F6F777C395E79717A
:0803DB007638373E735C4000E8
:0A03B100EF1FAC0670011E4C600F38
:0D03BB00007516027517C7D517FDD516FA87
:0303C80080E722A9
:06033800C39510FF7D17C4
:10033E00C374069F14601514601714601914601BA3
:10034E0014601D2405702075801F801775802F8006
:10035E0012758037800D75803B800875803D800357
:10036E0075803ED2A7C2A7ED9003CB93F580D2A69F
:09037E00C2A67F017E000203B15A
:0F0003008F0B8E0A8D098C08EC33500302010419
:10001200E4751001F50FF50EF50D751401F513F5E4
:1000220012F511F515EC4D4E4F7003751501AF0B1E
:10003200AE0AAD09AC08AB10AA0FA90EA80D1202A8
:1000420087E4FBFAF9F8C3120327601DAF0CE4FC46
:10005200FDFEAB10AA0FA90EA80D1201FC8F108E87
:100062000F8D0E8C0D051580C5E4751001F50FF589
:100072000EF50DE47F06FEFDFCAB10AA0FA90EA83B
:100082000DD312032740030201FBAF15E4FCFDFE72
:10009200A80D120327504EC374079510FFC007AF77
:1000A2000BAE0AAD09AC08AB14AA13A912A811121F
:1000B2000287C007AF0CAB07E4FAF9F8D0071202C7
:1000C20087AF03AD07D00712033EAF0CE4FCFDFE81
:1000D200AB14AA13A912A8111201FC8F148E138D4E
:1000E200128C1180057407120338E5102401F510F3
:1000F200E4350FF50FE4350EF50EE4350DF50D027E
:02010200007586
:10010400E4751001F50FF50EF50D751401F513F5F1
:1001140012F511F515AF0BAE0AAD09AC08120319AF
:10012400AB10AA0FA90EA80D120287E4FBFAF9F886
:10013400C3120327601DAF0CE4FCFDFEAB10AA0F35
:10014400A90EA80D1201FC8F108E0F8D0E8C0D05BB
:100154001580C2E4751001F50FF50EF50DE47F0668
:10016400FEFDFCAB10AA0FA90EA80DD31203275055
:100174007BAF15E4FCFDFEA80D1203275051C37498
:10018400079510FFC007AF0BAE0AAD09AC08120308
:1001940019AB14AA13A912A811120287C007AF0C35
:1001A400AB07E4FAF9F8D007120287AF03AD07D022
:1001B4000712033EAF0CE4FCFDFEAB14AA13A91214
:1001C400A8111201FC8F148E138D128C11800574EA
:1001D40008120338E5102401F510E4350FF50FE497
:1001E400350EF50EE4350DF50D020161C374069567
:0701F40015FF7D1612033E0A
:0101FB0022E1
:030000000203E315
:0C03E300787FE4F6D8FD758119020387CD
:1001FC00E88FF0A4CC8BF0A42CFCE98EF0A42CFCA2
:10020C008AF0EDA42CFCEA8EF0A4CDA8F08BF0A41F
:10021C002DCC3825F0FDE98FF0A42CCD35F0FCEB7E
:10022C008EF0A4FEA9F0EB8FF0A4CFC5F02ECD3943
:0F023C00FEE43CFCEAA42DCE35F0FDE43CFC22B0
:10024B0075F008758200EF2FFFEE33FECD33CDCC6A
:10025B0033CCC58233C5829BED9AEC99E5829840ED
:10026B000CF582EE9BFEED9AFDEC99FC0FD5F0D6CA
:10027B00E4CEFBE4CDFAE4CCF9A88222B800C1B9F4
:10028B000059BA002DEC8BF084CFCECDFCE5F0CB32
:10029B00F97818EF2FFFEE33FEED33FDEC33FCEB6B
:1002AB0033FB10D703994004EB99FB0FD8E5E4F926
:1002BB00FA227818EF2FFFEE33FEED33FDEC33FC13
:1002CB00C933C910D7059BE99A4007EC9BFCE99A07
:1002DB00F90FD8E0E4C9FAE4CCFB2275F010EF2F4C
:1002EB00FFEE33FEED33FDCC33CCC833C810D7074C
:1002FB009BEC9AE899400AED9BFDEC9AFCE899F887
:0E030B000FD5F0DAE4CDFBE4CCFAE4C8F92219
:0E031900C3E49FFFE49EFEE49DFDE49CFC22F5
:10032700EB9FF5F0EA9E42F0E99D42F0E89C45F02C
:0103370022A3
:00000001FF
