:0E00C70068656C6C6F20776F726C640D0A00B8
:100003001200B4D2AFD2AC7BFF7A0079C7120026BC
:090013007FC87E0012008880EE17
:030023000200E1F7
:0800E100309804B290C298327D
:09008800D3EF9400EE9400402235
:10009100009000CA740BF0A374BEF09000CBE01482
:0B00A100F070F89000CAE014F070F05E
:0700AC00EF1F70D81E80D584
:0100B300222A
:0800E9008F993099FDC29922A4
:100026009000C8EBF0A3EAF0A3E9F09000C8E0FB6B
:10003600A3E0FAA3E0F912005960179000C8A3E400
:1000460075F001120072A9F0FA120059FF1200E9C8
:0300560080D9222C
:1000B40053877F759850438E04759CDC438E0143AF
:0300C4008E102279
:030000000200D526
:0C00D500787FE4F6D8FD75810702000377
:10005900BB010689828A83E0225002E722BBFE02A5
:09006900E32289828A83E49322D8
:10007200A3F8E0C5F025F0F0E58215827002158341
:06008200E0C838F0E8229E
:00000001FF
