:10043F00120003D2AFD2ACE4FFEFC394C774809421
:10044F0080501074002FF582E43400F5837450F05F
:10045F000F80E6E49000C7F07B017A00790012006C
:0A046F00917FC87E001204AC80EEFD
:030023000204E4F0
:0804E400309804B290C2983276
:0904AC00D3EF9400EE940040220D
:1004B50000900192740BF0A374BEF0900193E014C8
:0B04C500F070F8900192E014F070F06D
:0704D000EF1F70D81E80D55C
:0104D7002202
:0804EC008F993099FDC299229D
:100479009001B8EBF0A3EAF0A3E9F09001B8E0FB32
:10048900A3E0FAA3E0F912038B60179001B8A3E483
:1004990075F0011203A4A9F0FA12038BFF1204EC00
:0304A90080D922D5
:1000030053877F759850438E40538EFE53890F4319
:0D0013008920758BDC758DDCC2ABD28E228E
:0504F400AE070204EC5C
:030000000204D81F
:0C04D800787FE4F6D8FD75812102043F16
:10038B00BB010689828A83E0225002E722BBFE0270
:09039B00E32289828A83E49322A3
:1003A400A3F8E0C5F025F0F0E5821582700215830C
:0603B400E0C838F0E82269
:10002600E5082493F582E43401F583E0050822907F
:100036000190300703900193E475F0011203F90271
:10004600038B2000E97F2ED2008018EF540F2490F6
:10005600D43440D4FF30040BEF24BFB41A0050034D
:100066002461FFE50960021509050CE50C7002051F
:100076000B30070E900190E475F0011203F9EF02C0
:1000860003E70204F47403D2078003E4C207F50809
:10009600900190120410E4F509F50BF50CE50960E2
:1000A600077F2012006980F5750AFFC201C200C2EF
:1000B60002C203C205C206C208120035FF700D3027
:1000C60007057F0012007AAF0CAE0B22B4255FC283
:1000D600D5C204120035FF24D0B40A00501A75F0B8
:1000E6000A780930D50508B6FF0106C6A426F6200B
:1000F600D5047002D20380D924CFB41A00EF50047D
:10010600C2E5D20402027BD20180C6D20080C0D2F0
:100116000280BCD2D580BAD20580B47F2012006995
:100126002002077401B5090040F1120026FF1200F3
:10013600690200A3D208D2068095120026FB12009F
:1001460026FA120026F94A4B7006794C7A037BFF91
:1001560020022EE509602A7E008E82758300120336
:10016600BA60060EEE650A70F0C2D5EBC0E0EAC0D2
:10017600E0E9C0E0EE1202C2D0E0F9D0E0FAD0E049
:10018600FB12038BFF60AAEBC0E0EAC0E0E9C0E027
:10019600120069D0E02401F9D0E03400FAD0E0FB87
:1001A600E50A0460DCD50AD980877BFF7A0279BE2E
:1001B600D202809C791080027908C206C2088008A3
:1001C600D2D5790A8004790AC2D5E50A047002F507
:1001D6000AE4FAFDFEFF120026FC7B08200113123A
:1001E6000026FD7B1030000A120026FE120026FFB4
:1001F6007B20EC3382D592D55013C3E43000069FA2
:10020600FFE49EFEE42001039DFDE49CFCE4CBF8A4
:10021600C201EC700CCFCECDCCE824F8F870F38098
:1002260017C3EF33FFEE33FEED33FDEC33FCEB3358
:10023600FB994002FB0FD8E9EB300105F8D0E0C48A
:1002460048B201C0E00AEC4D4E4F78207B0070C2E8
:10025600EAB50A0040BCC0E01202C4D0F0D0E020EB
:100266000104C4C0E0C4B201C0F0120052D0F0D5FF
:10027600F0EB0200A312041901405301BA58011110
:100286004C010D4201BE4F01C64401C64901264339
:0802960001CC5501B04601B096
:10029E004501B047036C5001152D01192E013C2B61
:1002AE00011D23013A2003552A00D54800000134D0
:1002BE003F3F3F00790AA2D5200314300509B9103B
:1002CE00020404B9080104A2D5200602500104203C
:1002DE0002689202B509005034C0E07F2030031945
:1002EE007F30A20272067205500F12031BC202C2A9
:1002FE0006C205C2087F30800F300503E9C0E01248
:10030E000069300503D0E0F9D0E0B509CC3005170F
:10031E007F30B9100C1200697F583004077F788047
:10032E0003B908031200693002057F2D0200697FB0
:10033E00202008F87F2B2006F322920280CF286E11
:10034E00756C6C2900D2011200263001F8C20178BA
:10035E000930D50108F60200D52D50434958120038
:10036E00262403B405004001E49003679312005A5B
:0D037E00743A12005AD2037509040201BA44
:1003BA00BB010CE58229F582E5833AF583E02250F8
:1003CA0006E92582F8E622BBFE06E92582F8E22242
:0D03DA00E58229F582E5833AF583E493225C
:1003E700BB010689828A83F0225002F722BBFE01F5
:0203F700F322EF
:1003F900F8E0FBA3A3E0F925F0F0E582158270028D
:070409001583E0FA38F02230
:09041000EBF0A3EAF0A3E9F022ED
:10041900D083D082F8E4937012740193700DA3A372
:1004290093F8740193F5828883E473740293686086
:06043900EFA3A3A380DF86
:00000001FF
